{
  "contractName": "ArmazenaNumero",
  "abi": [
    {
      "constant": false,
      "inputs": [
        {
          "name": "x",
          "type": "uint256"
        }
      ],
      "name": "guardar",
      "outputs": [],
      "payable": false,
      "stateMutability": "nonpayable",
      "type": "function"
    },
    {
      "constant": true,
      "inputs": [],
      "name": "ver",
      "outputs": [
        {
          "name": "",
          "type": "uint256"
        }
      ],
      "payable": false,
      "stateMutability": "view",
      "type": "function"
    }
  ],
  "bytecode": "0x608060405234801561001057600080fd5b5060ec8061001f6000396000f3fe6080604052600436106049576000357c0100000000000000000000000000000000000000000000000000000000900463ffffffff1680631667434f14604e57806365c43cc7146085575b600080fd5b348015605957600080fd5b50608360048036036020811015606e57600080fd5b810190808035906020019092919050505060ad565b005b348015609057600080fd5b50609760b7565b6040518082815260200191505060405180910390f35b8060008190555050565b6000805490509056fea165627a7a72305820988813a376ad2bd08166c438f7b82291a3734caeabadd701adfa4e018e88fdef0029",
  "source": "pragma solidity >=0.4.21 <0.6.0;\r\n\r\ncontract ArmazenaNumero {\r\n    uint armazenamento;\r\n\r\n    function guardar(uint x) public {\r\n        armazenamento = x;\r\n    }\r\n\r\n    function ver() public view returns (uint) {\r\n        return armazenamento;\r\n    }\r\n}\r\n",
  "sourcePath": "C:/git/armazena-numero/contracts/ArmazenaNumero.sol",
  "compiler": {
    "name": "solc",
    "version": "0.5.0+commit.1d4f565a.Emscripten.clang"
  },
  "schemaVersion": "3.0.2",
  "updatedAt": "2019-03-11T01:40:42.466Z",
  "devdoc": {
    "methods": {}
  },
  "userdoc": {
    "methods": {}
  }
}